{
  "_format": "hh-sol-artifact-1",
  "contractName": "SupplyChain",
  "sourceName": "contracts/SupplyChain.sol",
  "abi": [
    {
      "inputs": [],
      "stateMutability": "nonpayable",
      "type": "constructor"
    },
    {
      "anonymous": false,
      "inputs": [
        {
          "indexed": true,
          "internalType": "uint256",
          "name": "_itemId",
          "type": "uint256"
        }
      ],
      "name": "ItemManufactured",
      "type": "event"
    },
    {
      "anonymous": false,
      "inputs": [
        {
          "indexed": true,
          "internalType": "uint256",
          "name": "_itemId",
          "type": "uint256"
        }
      ],
      "name": "ItemShippedToDistributor",
      "type": "event"
    },
    {
      "anonymous": false,
      "inputs": [
        {
          "indexed": true,
          "internalType": "uint256",
          "name": "_itemId",
          "type": "uint256"
        }
      ],
      "name": "ItemShippedToRetailer",
      "type": "event"
    },
    {
      "anonymous": false,
      "inputs": [
        {
          "indexed": true,
          "internalType": "uint256",
          "name": "_itemId",
          "type": "uint256"
        }
      ],
      "name": "ItemSold",
      "type": "event"
    },
    {
      "anonymous": false,
      "inputs": [
        {
          "indexed": true,
          "internalType": "address",
          "name": "_user",
          "type": "address"
        }
      ],
      "name": "VerificationApproved",
      "type": "event"
    },
    {
      "anonymous": false,
      "inputs": [
        {
          "indexed": true,
          "internalType": "address",
          "name": "_user",
          "type": "address"
        }
      ],
      "name": "VerificationRejected",
      "type": "event"
    },
    {
      "inputs": [
        {
          "internalType": "address",
          "name": "_user",
          "type": "address"
        }
      ],
      "name": "approveVerification",
      "outputs": [],
      "stateMutability": "nonpayable",
      "type": "function"
    },
    {
      "inputs": [
        {
          "internalType": "address",
          "name": "_distributorAddress",
          "type": "address"
        }
      ],
      "name": "getDistributorItems",
      "outputs": [
        {
          "components": [
            {
              "internalType": "string",
              "name": "name",
              "type": "string"
            },
            {
              "internalType": "string",
              "name": "description",
              "type": "string"
            },
            {
              "internalType": "enum SupplyChain.State",
              "name": "state",
              "type": "uint8"
            },
            {
              "components": [
                {
                  "internalType": "address",
                  "name": "id",
                  "type": "address"
                },
                {
                  "internalType": "enum SupplyChain.Role",
                  "name": "role",
                  "type": "uint8"
                },
                {
                  "internalType": "string",
                  "name": "name",
                  "type": "string"
                },
                {
                  "internalType": "string",
                  "name": "location",
                  "type": "string"
                },
                {
                  "internalType": "enum SupplyChain.VerificationStatus",
                  "name": "verificationStatus",
                  "type": "uint8"
                }
              ],
              "internalType": "struct SupplyChain.Participant",
              "name": "manufacturer",
              "type": "tuple"
            },
            {
              "components": [
                {
                  "internalType": "address",
                  "name": "id",
                  "type": "address"
                },
                {
                  "internalType": "enum SupplyChain.Role",
                  "name": "role",
                  "type": "uint8"
                },
                {
                  "internalType": "string",
                  "name": "name",
                  "type": "string"
                },
                {
                  "internalType": "string",
                  "name": "location",
                  "type": "string"
                },
                {
                  "internalType": "enum SupplyChain.VerificationStatus",
                  "name": "verificationStatus",
                  "type": "uint8"
                }
              ],
              "internalType": "struct SupplyChain.Participant",
              "name": "distributor",
              "type": "tuple"
            },
            {
              "components": [
                {
                  "internalType": "address",
                  "name": "id",
                  "type": "address"
                },
                {
                  "internalType": "enum SupplyChain.Role",
                  "name": "role",
                  "type": "uint8"
                },
                {
                  "internalType": "string",
                  "name": "name",
                  "type": "string"
                },
                {
                  "internalType": "string",
                  "name": "location",
                  "type": "string"
                },
                {
                  "internalType": "enum SupplyChain.VerificationStatus",
                  "name": "verificationStatus",
                  "type": "uint8"
                }
              ],
              "internalType": "struct SupplyChain.Participant",
              "name": "retailer",
              "type": "tuple"
            },
            {
              "internalType": "uint256",
              "name": "manufacturedTimestamp",
              "type": "uint256"
            },
            {
              "internalType": "uint256",
              "name": "shippedToDistributorTimestamp",
              "type": "uint256"
            },
            {
              "internalType": "uint256",
              "name": "shippedToRetailerTimestamp",
              "type": "uint256"
            },
            {
              "internalType": "uint256",
              "name": "soldTimestamp",
              "type": "uint256"
            },
            {
              "internalType": "uint256",
              "name": "id",
              "type": "uint256"
            }
          ],
          "internalType": "struct SupplyChain.Item[]",
          "name": "",
          "type": "tuple[]"
        }
      ],
      "stateMutability": "view",
      "type": "function"
    },
    {
      "inputs": [
        {
          "internalType": "uint256",
          "name": "_itemId",
          "type": "uint256"
        }
      ],
      "name": "getItemDetails",
      "outputs": [
        {
          "components": [
            {
              "internalType": "string",
              "name": "name",
              "type": "string"
            },
            {
              "internalType": "string",
              "name": "description",
              "type": "string"
            },
            {
              "internalType": "enum SupplyChain.State",
              "name": "state",
              "type": "uint8"
            },
            {
              "components": [
                {
                  "internalType": "address",
                  "name": "id",
                  "type": "address"
                },
                {
                  "internalType": "enum SupplyChain.Role",
                  "name": "role",
                  "type": "uint8"
                },
                {
                  "internalType": "string",
                  "name": "name",
                  "type": "string"
                },
                {
                  "internalType": "string",
                  "name": "location",
                  "type": "string"
                },
                {
                  "internalType": "enum SupplyChain.VerificationStatus",
                  "name": "verificationStatus",
                  "type": "uint8"
                }
              ],
              "internalType": "struct SupplyChain.Participant",
              "name": "manufacturer",
              "type": "tuple"
            },
            {
              "components": [
                {
                  "internalType": "address",
                  "name": "id",
                  "type": "address"
                },
                {
                  "internalType": "enum SupplyChain.Role",
                  "name": "role",
                  "type": "uint8"
                },
                {
                  "internalType": "string",
                  "name": "name",
                  "type": "string"
                },
                {
                  "internalType": "string",
                  "name": "location",
                  "type": "string"
                },
                {
                  "internalType": "enum SupplyChain.VerificationStatus",
                  "name": "verificationStatus",
                  "type": "uint8"
                }
              ],
              "internalType": "struct SupplyChain.Participant",
              "name": "distributor",
              "type": "tuple"
            },
            {
              "components": [
                {
                  "internalType": "address",
                  "name": "id",
                  "type": "address"
                },
                {
                  "internalType": "enum SupplyChain.Role",
                  "name": "role",
                  "type": "uint8"
                },
                {
                  "internalType": "string",
                  "name": "name",
                  "type": "string"
                },
                {
                  "internalType": "string",
                  "name": "location",
                  "type": "string"
                },
                {
                  "internalType": "enum SupplyChain.VerificationStatus",
                  "name": "verificationStatus",
                  "type": "uint8"
                }
              ],
              "internalType": "struct SupplyChain.Participant",
              "name": "retailer",
              "type": "tuple"
            },
            {
              "internalType": "uint256",
              "name": "manufacturedTimestamp",
              "type": "uint256"
            },
            {
              "internalType": "uint256",
              "name": "shippedToDistributorTimestamp",
              "type": "uint256"
            },
            {
              "internalType": "uint256",
              "name": "shippedToRetailerTimestamp",
              "type": "uint256"
            },
            {
              "internalType": "uint256",
              "name": "soldTimestamp",
              "type": "uint256"
            },
            {
              "internalType": "uint256",
              "name": "id",
              "type": "uint256"
            }
          ],
          "internalType": "struct SupplyChain.Item",
          "name": "",
          "type": "tuple"
        }
      ],
      "stateMutability": "view",
      "type": "function"
    },
    {
      "inputs": [
        {
          "internalType": "address",
          "name": "_manufacturerAddress",
          "type": "address"
        }
      ],
      "name": "getManufacturerItems",
      "outputs": [
        {
          "components": [
            {
              "internalType": "string",
              "name": "name",
              "type": "string"
            },
            {
              "internalType": "string",
              "name": "description",
              "type": "string"
            },
            {
              "internalType": "enum SupplyChain.State",
              "name": "state",
              "type": "uint8"
            },
            {
              "components": [
                {
                  "internalType": "address",
                  "name": "id",
                  "type": "address"
                },
                {
                  "internalType": "enum SupplyChain.Role",
                  "name": "role",
                  "type": "uint8"
                },
                {
                  "internalType": "string",
                  "name": "name",
                  "type": "string"
                },
                {
                  "internalType": "string",
                  "name": "location",
                  "type": "string"
                },
                {
                  "internalType": "enum SupplyChain.VerificationStatus",
                  "name": "verificationStatus",
                  "type": "uint8"
                }
              ],
              "internalType": "struct SupplyChain.Participant",
              "name": "manufacturer",
              "type": "tuple"
            },
            {
              "components": [
                {
                  "internalType": "address",
                  "name": "id",
                  "type": "address"
                },
                {
                  "internalType": "enum SupplyChain.Role",
                  "name": "role",
                  "type": "uint8"
                },
                {
                  "internalType": "string",
                  "name": "name",
                  "type": "string"
                },
                {
                  "internalType": "string",
                  "name": "location",
                  "type": "string"
                },
                {
                  "internalType": "enum SupplyChain.VerificationStatus",
                  "name": "verificationStatus",
                  "type": "uint8"
                }
              ],
              "internalType": "struct SupplyChain.Participant",
              "name": "distributor",
              "type": "tuple"
            },
            {
              "components": [
                {
                  "internalType": "address",
                  "name": "id",
                  "type": "address"
                },
                {
                  "internalType": "enum SupplyChain.Role",
                  "name": "role",
                  "type": "uint8"
                },
                {
                  "internalType": "string",
                  "name": "name",
                  "type": "string"
                },
                {
                  "internalType": "string",
                  "name": "location",
                  "type": "string"
                },
                {
                  "internalType": "enum SupplyChain.VerificationStatus",
                  "name": "verificationStatus",
                  "type": "uint8"
                }
              ],
              "internalType": "struct SupplyChain.Participant",
              "name": "retailer",
              "type": "tuple"
            },
            {
              "internalType": "uint256",
              "name": "manufacturedTimestamp",
              "type": "uint256"
            },
            {
              "internalType": "uint256",
              "name": "shippedToDistributorTimestamp",
              "type": "uint256"
            },
            {
              "internalType": "uint256",
              "name": "shippedToRetailerTimestamp",
              "type": "uint256"
            },
            {
              "internalType": "uint256",
              "name": "soldTimestamp",
              "type": "uint256"
            },
            {
              "internalType": "uint256",
              "name": "id",
              "type": "uint256"
            }
          ],
          "internalType": "struct SupplyChain.Item[]",
          "name": "",
          "type": "tuple[]"
        }
      ],
      "stateMutability": "view",
      "type": "function"
    },
    {
      "inputs": [],
      "name": "getParticipantsWithPendingVerification",
      "outputs": [
        {
          "components": [
            {
              "internalType": "address",
              "name": "id",
              "type": "address"
            },
            {
              "internalType": "enum SupplyChain.Role",
              "name": "role",
              "type": "uint8"
            },
            {
              "internalType": "string",
              "name": "name",
              "type": "string"
            },
            {
              "internalType": "string",
              "name": "location",
              "type": "string"
            },
            {
              "internalType": "enum SupplyChain.VerificationStatus",
              "name": "verificationStatus",
              "type": "uint8"
            }
          ],
          "internalType": "struct SupplyChain.Participant[]",
          "name": "",
          "type": "tuple[]"
        }
      ],
      "stateMutability": "view",
      "type": "function"
    },
    {
      "inputs": [
        {
          "internalType": "address",
          "name": "_retailerAddress",
          "type": "address"
        }
      ],
      "name": "getRetailerItems",
      "outputs": [
        {
          "components": [
            {
              "internalType": "string",
              "name": "name",
              "type": "string"
            },
            {
              "internalType": "string",
              "name": "description",
              "type": "string"
            },
            {
              "internalType": "enum SupplyChain.State",
              "name": "state",
              "type": "uint8"
            },
            {
              "components": [
                {
                  "internalType": "address",
                  "name": "id",
                  "type": "address"
                },
                {
                  "internalType": "enum SupplyChain.Role",
                  "name": "role",
                  "type": "uint8"
                },
                {
                  "internalType": "string",
                  "name": "name",
                  "type": "string"
                },
                {
                  "internalType": "string",
                  "name": "location",
                  "type": "string"
                },
                {
                  "internalType": "enum SupplyChain.VerificationStatus",
                  "name": "verificationStatus",
                  "type": "uint8"
                }
              ],
              "internalType": "struct SupplyChain.Participant",
              "name": "manufacturer",
              "type": "tuple"
            },
            {
              "components": [
                {
                  "internalType": "address",
                  "name": "id",
                  "type": "address"
                },
                {
                  "internalType": "enum SupplyChain.Role",
                  "name": "role",
                  "type": "uint8"
                },
                {
                  "internalType": "string",
                  "name": "name",
                  "type": "string"
                },
                {
                  "internalType": "string",
                  "name": "location",
                  "type": "string"
                },
                {
                  "internalType": "enum SupplyChain.VerificationStatus",
                  "name": "verificationStatus",
                  "type": "uint8"
                }
              ],
              "internalType": "struct SupplyChain.Participant",
              "name": "distributor",
              "type": "tuple"
            },
            {
              "components": [
                {
                  "internalType": "address",
                  "name": "id",
                  "type": "address"
                },
                {
                  "internalType": "enum SupplyChain.Role",
                  "name": "role",
                  "type": "uint8"
                },
                {
                  "internalType": "string",
                  "name": "name",
                  "type": "string"
                },
                {
                  "internalType": "string",
                  "name": "location",
                  "type": "string"
                },
                {
                  "internalType": "enum SupplyChain.VerificationStatus",
                  "name": "verificationStatus",
                  "type": "uint8"
                }
              ],
              "internalType": "struct SupplyChain.Participant",
              "name": "retailer",
              "type": "tuple"
            },
            {
              "internalType": "uint256",
              "name": "manufacturedTimestamp",
              "type": "uint256"
            },
            {
              "internalType": "uint256",
              "name": "shippedToDistributorTimestamp",
              "type": "uint256"
            },
            {
              "internalType": "uint256",
              "name": "shippedToRetailerTimestamp",
              "type": "uint256"
            },
            {
              "internalType": "uint256",
              "name": "soldTimestamp",
              "type": "uint256"
            },
            {
              "internalType": "uint256",
              "name": "id",
              "type": "uint256"
            }
          ],
          "internalType": "struct SupplyChain.Item[]",
          "name": "",
          "type": "tuple[]"
        }
      ],
      "stateMutability": "view",
      "type": "function"
    },
    {
      "inputs": [],
      "name": "itemCount",
      "outputs": [
        {
          "internalType": "uint256",
          "name": "",
          "type": "uint256"
        }
      ],
      "stateMutability": "view",
      "type": "function"
    },
    {
      "inputs": [
        {
          "internalType": "uint256",
          "name": "",
          "type": "uint256"
        }
      ],
      "name": "items",
      "outputs": [
        {
          "internalType": "string",
          "name": "name",
          "type": "string"
        },
        {
          "internalType": "string",
          "name": "description",
          "type": "string"
        },
        {
          "internalType": "enum SupplyChain.State",
          "name": "state",
          "type": "uint8"
        },
        {
          "components": [
            {
              "internalType": "address",
              "name": "id",
              "type": "address"
            },
            {
              "internalType": "enum SupplyChain.Role",
              "name": "role",
              "type": "uint8"
            },
            {
              "internalType": "string",
              "name": "name",
              "type": "string"
            },
            {
              "internalType": "string",
              "name": "location",
              "type": "string"
            },
            {
              "internalType": "enum SupplyChain.VerificationStatus",
              "name": "verificationStatus",
              "type": "uint8"
            }
          ],
          "internalType": "struct SupplyChain.Participant",
          "name": "manufacturer",
          "type": "tuple"
        },
        {
          "components": [
            {
              "internalType": "address",
              "name": "id",
              "type": "address"
            },
            {
              "internalType": "enum SupplyChain.Role",
              "name": "role",
              "type": "uint8"
            },
            {
              "internalType": "string",
              "name": "name",
              "type": "string"
            },
            {
              "internalType": "string",
              "name": "location",
              "type": "string"
            },
            {
              "internalType": "enum SupplyChain.VerificationStatus",
              "name": "verificationStatus",
              "type": "uint8"
            }
          ],
          "internalType": "struct SupplyChain.Participant",
          "name": "distributor",
          "type": "tuple"
        },
        {
          "components": [
            {
              "internalType": "address",
              "name": "id",
              "type": "address"
            },
            {
              "internalType": "enum SupplyChain.Role",
              "name": "role",
              "type": "uint8"
            },
            {
              "internalType": "string",
              "name": "name",
              "type": "string"
            },
            {
              "internalType": "string",
              "name": "location",
              "type": "string"
            },
            {
              "internalType": "enum SupplyChain.VerificationStatus",
              "name": "verificationStatus",
              "type": "uint8"
            }
          ],
          "internalType": "struct SupplyChain.Participant",
          "name": "retailer",
          "type": "tuple"
        },
        {
          "internalType": "uint256",
          "name": "manufacturedTimestamp",
          "type": "uint256"
        },
        {
          "internalType": "uint256",
          "name": "shippedToDistributorTimestamp",
          "type": "uint256"
        },
        {
          "internalType": "uint256",
          "name": "shippedToRetailerTimestamp",
          "type": "uint256"
        },
        {
          "internalType": "uint256",
          "name": "soldTimestamp",
          "type": "uint256"
        },
        {
          "internalType": "uint256",
          "name": "id",
          "type": "uint256"
        }
      ],
      "stateMutability": "view",
      "type": "function"
    },
    {
      "inputs": [
        {
          "internalType": "string",
          "name": "_itemName",
          "type": "string"
        },
        {
          "internalType": "string",
          "name": "_itemDescription",
          "type": "string"
        }
      ],
      "name": "manufactureItem",
      "outputs": [],
      "stateMutability": "nonpayable",
      "type": "function"
    },
    {
      "inputs": [],
      "name": "owner",
      "outputs": [
        {
          "internalType": "address",
          "name": "",
          "type": "address"
        }
      ],
      "stateMutability": "view",
      "type": "function"
    },
    {
      "inputs": [
        {
          "internalType": "uint256",
          "name": "",
          "type": "uint256"
        }
      ],
      "name": "participantKeys",
      "outputs": [
        {
          "internalType": "address",
          "name": "",
          "type": "address"
        }
      ],
      "stateMutability": "view",
      "type": "function"
    },
    {
      "inputs": [
        {
          "internalType": "address",
          "name": "",
          "type": "address"
        }
      ],
      "name": "participants",
      "outputs": [
        {
          "internalType": "address",
          "name": "id",
          "type": "address"
        },
        {
          "internalType": "enum SupplyChain.Role",
          "name": "role",
          "type": "uint8"
        },
        {
          "internalType": "string",
          "name": "name",
          "type": "string"
        },
        {
          "internalType": "string",
          "name": "location",
          "type": "string"
        },
        {
          "internalType": "enum SupplyChain.VerificationStatus",
          "name": "verificationStatus",
          "type": "uint8"
        }
      ],
      "stateMutability": "view",
      "type": "function"
    },
    {
      "inputs": [
        {
          "internalType": "enum SupplyChain.Role",
          "name": "_role",
          "type": "uint8"
        },
        {
          "internalType": "string",
          "name": "_name",
          "type": "string"
        },
        {
          "internalType": "string",
          "name": "_location",
          "type": "string"
        }
      ],
      "name": "registerUser",
      "outputs": [],
      "stateMutability": "nonpayable",
      "type": "function"
    },
    {
      "inputs": [
        {
          "internalType": "address",
          "name": "_user",
          "type": "address"
        }
      ],
      "name": "rejectVerification",
      "outputs": [],
      "stateMutability": "nonpayable",
      "type": "function"
    },
    {
      "inputs": [],
      "name": "requestVerification",
      "outputs": [],
      "stateMutability": "nonpayable",
      "type": "function"
    },
    {
      "inputs": [
        {
          "internalType": "uint256",
          "name": "_itemId",
          "type": "uint256"
        }
      ],
      "name": "sellItem",
      "outputs": [],
      "stateMutability": "nonpayable",
      "type": "function"
    },
    {
      "inputs": [
        {
          "internalType": "uint256",
          "name": "_itemId",
          "type": "uint256"
        },
        {
          "internalType": "address",
          "name": "_distributorAddress",
          "type": "address"
        }
      ],
      "name": "shipItemToDistributor",
      "outputs": [],
      "stateMutability": "nonpayable",
      "type": "function"
    },
    {
      "inputs": [
        {
          "internalType": "uint256",
          "name": "_itemId",
          "type": "uint256"
        },
        {
          "internalType": "address",
          "name": "_retailerAddress",
          "type": "address"
        }
      ],
      "name": "shipItemToRetailer",
      "outputs": [],
      "stateMutability": "nonpayable",
      "type": "function"
    }
  ],
  "bytecode": "0x60806040523480156200001157600080fd5b5033600460006101000a81548173ffffffffffffffffffffffffffffffffffffffff021916908373ffffffffffffffffffffffffffffffffffffffff1602179055506040518060a00160405280600460009054906101000a900473ffffffffffffffffffffffffffffffffffffffff1673ffffffffffffffffffffffffffffffffffffffff16815260200160006003811115620000b357620000b26200028f565b5b81526020016040518060400160405280600581526020017f4f776e657200000000000000000000000000000000000000000000000000000081525081526020016040518060400160405280600581526020017f45617274680000000000000000000000000000000000000000000000000000008152508152602001600260038111156200014557620001446200028f565b5b81525060026000600460009054906101000a900473ffffffffffffffffffffffffffffffffffffffff1673ffffffffffffffffffffffffffffffffffffffff1673ffffffffffffffffffffffffffffffffffffffff16815260200190815260200160002060008201518160000160006101000a81548173ffffffffffffffffffffffffffffffffffffffff021916908373ffffffffffffffffffffffffffffffffffffffff16021790555060208201518160000160146101000a81548160ff021916908360038111156200021e576200021d6200028f565b5b021790555060408201518160010190816200023a919062000538565b50606082015181600201908162000252919062000538565b5060808201518160030160006101000a81548160ff021916908360038111156200028157620002806200028f565b5b02179055509050506200061f565b7f4e487b7100000000000000000000000000000000000000000000000000000000600052602160045260246000fd5b600081519050919050565b7f4e487b7100000000000000000000000000000000000000000000000000000000600052604160045260246000fd5b7f4e487b7100000000000000000000000000000000000000000000000000000000600052602260045260246000fd5b600060028204905060018216806200034057607f821691505b602082108103620003565762000355620002f8565b5b50919050565b60008190508160005260206000209050919050565b60006020601f8301049050919050565b600082821b905092915050565b600060088302620003c07fffffffffffffffffffffffffffffffffffffffffffffffffffffffffffffffff8262000381565b620003cc868362000381565b95508019841693508086168417925050509392505050565b6000819050919050565b6000819050919050565b600062000419620004136200040d84620003e4565b620003ee565b620003e4565b9050919050565b6000819050919050565b6200043583620003f8565b6200044d620004448262000420565b8484546200038e565b825550505050565b600090565b6200046462000455565b620004718184846200042a565b505050565b5b8181101562000499576200048d6000826200045a565b60018101905062000477565b5050565b601f821115620004e857620004b2816200035c565b620004bd8462000371565b81016020851015620004cd578190505b620004e5620004dc8562000371565b83018262000476565b50505b505050565b600082821c905092915050565b60006200050d60001984600802620004ed565b1980831691505092915050565b6000620005288383620004fa565b9150826002028217905092915050565b6200054382620002be565b67ffffffffffffffff8111156200055f576200055e620002c9565b5b6200056b825462000327565b620005788282856200049d565b600060209050601f831160018114620005b057600084156200059b578287015190505b620005a785826200051a565b86555062000617565b601f198416620005c0866200035c565b60005b82811015620005ea57848901518255600182019150602085019450602081019050620005c3565b868310156200060a578489015162000606601f891682620004fa565b8355505b6001600288020188555050505b505050505050565b6156a3806200062f6000396000f3fe608060405234801561001057600080fd5b50600436106101165760003560e01c80638da5cb5b116100a25780639a772079116100715780639a772079146102cf578063b0ea2b07146102eb578063bfb231d21461031b578063c4eef4a214610355578063c7bbe29a1461037157610116565b80638da5cb5b1461024957806391b6be9a1461026757806397c1db2e1461028357806398bb0f3b1461029f57610116565b80633f7fb53b116100e95780633f7fb53b146101a55780635306d324146101c15780635975b088146101df5780636bfb0d01146101fb57806373004ca01461021957610116565b806307ec30391461011b57806309e69ede146101255780630b0f105214610159578063155d8e5414610175575b600080fd5b6101236103a1565b005b61013f600480360381019061013a9190613bfd565b610541565b604051610150959493929190613d88565b60405180910390f35b610173600480360381019061016e9190613e1f565b6106c1565b005b61018f600480360381019061018a9190613bfd565b610c1e565b60405161019c9190614177565b60405180910390f35b6101bf60048036038101906101ba9190613bfd565b610d76565b005b6101c9610f6c565b6040516101d6919061425b565b60405180910390f35b6101f960048036038101906101f49190613e1f565b6112d0565b005b61020361182e565b604051610210919061428c565b60405180910390f35b610233600480360381019061022e91906142a7565b611834565b60405161024091906143df565b60405180910390f35b610251612050565b60405161025e9190614401565b60405180910390f35b610281600480360381019061027c91906142a7565b612076565b005b61029d60048036038101906102989190614551565b6122e6565b005b6102b960048036038101906102b491906142a7565b612b34565b6040516102c69190614401565b60405180910390f35b6102e960048036038101906102e491906145ee565b612b73565b005b61030560048036038101906103009190613bfd565b612e98565b6040516103129190614177565b60405180910390f35b610335600480360381019061033091906142a7565b612ff0565b60405161034c9b9a99989796959493929190614705565b60405180910390f35b61036f600480360381019061036a9190613bfd565b613755565b005b61038b60048036038101906103869190613bfd565b61394c565b6040516103989190614177565b60405180910390f35b600060038111156103b5576103b4613c39565b5b600260003373ffffffffffffffffffffffffffffffffffffffff1673ffffffffffffffffffffffffffffffffffffffff16815260200190815260200160002060030160009054906101000a900460ff16600381111561041757610416613c39565b5b1480610495575060038081111561043157610430613c39565b5b600260003373ffffffffffffffffffffffffffffffffffffffff1673ffffffffffffffffffffffffffffffffffffffff16815260200190815260200160002060030160009054906101000a900460ff16600381111561049357610492613c39565b5b145b6104d4576040517f08c379a00000000000000000000000000000000000000000000000000000000081526004016104cb90614845565b60405180910390fd5b6001600260003373ffffffffffffffffffffffffffffffffffffffff1673ffffffffffffffffffffffffffffffffffffffff16815260200190815260200160002060030160006101000a81548160ff0219169083600381111561053a57610539613c39565b5b0217905550565b60026020528060005260406000206000915090508060000160009054906101000a900473ffffffffffffffffffffffffffffffffffffffff16908060000160149054906101000a900460ff169080600101805461059d90614894565b80601f01602080910402602001604051908101604052809291908181526020018280546105c990614894565b80156106165780601f106105eb57610100808354040283529160200191610616565b820191906000526020600020905b8154815290600101906020018083116105f957829003601f168201915b50505050509080600201805461062b90614894565b80601f016020809104026020016040519081016040528092919081815260200182805461065790614894565b80156106a45780601f10610679576101008083540402835291602001916106a4565b820191906000526020600020905b81548152906001019060200180831161068757829003601f168201915b5050505050908060030160009054906101000a900460ff16905085565b600160038111156106d5576106d4613c39565b5b600260003373ffffffffffffffffffffffffffffffffffffffff1673ffffffffffffffffffffffffffffffffffffffff16815260200190815260200160002060000160149054906101000a900460ff16600381111561073757610736613c39565b5b14610777576040517f08c379a000000000000000000000000000000000000000000000000000000000815260040161076e90614937565b60405180910390fd5b6002600381111561078b5761078a613c39565b5b600260008373ffffffffffffffffffffffffffffffffffffffff1673ffffffffffffffffffffffffffffffffffffffff16815260200190815260200160002060000160149054906101000a900460ff1660038111156107ed576107ec613c39565b5b1461082d576040517f08c379a0000000000000000000000000000000000000000000000000000000008152600401610824906149a3565b60405180910390fd5b6000600381111561084157610840613c39565b5b6001600084815260200190815260200160002060020160009054906101000a900460ff16600381111561087757610876613c39565b5b146108b7576040517f08c379a00000000000000000000000000000000000000000000000000000000081526004016108ae90614a35565b60405180910390fd5b3373ffffffffffffffffffffffffffffffffffffffff166001600084815260200190815260200160002060030160000160009054906101000a900473ffffffffffffffffffffffffffffffffffffffff1673ffffffffffffffffffffffffffffffffffffffff161461095e576040517f08c379a000000000000000000000000000000000000000000000000000000000815260040161095590614aed565b60405180910390fd5b3373ffffffffffffffffffffffffffffffffffffffff168173ffffffffffffffffffffffffffffffffffffffff16036109cc576040517f08c379a00000000000000000000000000000000000000000000000000000000081526004016109c390614b7f565b60405180910390fd5b600180600084815260200190815260200160002060020160006101000a81548160ff02191690836003811115610a0557610a04613c39565b5b0217905550600260008273ffffffffffffffffffffffffffffffffffffffff1673ffffffffffffffffffffffffffffffffffffffff168152602001908152602001600020600160008481526020019081526020016000206007016000820160009054906101000a900473ffffffffffffffffffffffffffffffffffffffff168160000160006101000a81548173ffffffffffffffffffffffffffffffffffffffff021916908373ffffffffffffffffffffffffffffffffffffffff1602179055506000820160149054906101000a900460ff168160000160146101000a81548160ff02191690836003811115610afe57610afd613c39565b5b021790555060018201816001019081610b179190614d61565b5060028201816002019081610b2c9190614d61565b506003820160009054906101000a900460ff168160030160006101000a81548160ff02191690836003811115610b6557610b64613c39565b5b0217905550905050600660008273ffffffffffffffffffffffffffffffffffffffff1673ffffffffffffffffffffffffffffffffffffffff168152602001908152602001600020829080600181540180825580915050600190039060005260206000200160009091909190915055426001600084815260200190815260200160002060100181905550817ea035d3fc290c5fbc3c5dac91b1d8fdb7d77a1db9152c97b5f8d035890b2f6a60405160405180910390a25050565b60606000600560008473ffffffffffffffffffffffffffffffffffffffff1673ffffffffffffffffffffffffffffffffffffffff168152602001908152602001600020805480602002602001604051908101604052809291908181526020018280548015610cab57602002820191906000526020600020905b815481526020019060010190808311610c97575b505050505090506000815167ffffffffffffffff811115610ccf57610cce614426565b5b604051908082528060200260200182016040528015610d0857816020015b610cf5613aa4565b815260200190600190039081610ced5790505b50905060005b8251811015610d6b57610d3a838281518110610d2d57610d2c614e49565b5b6020026020010151611834565b828281518110610d4d57610d4c614e49565b5b60200260200101819052508080610d6390614ea7565b915050610d0e565b508092505050919050565b600460009054906101000a900473ffffffffffffffffffffffffffffffffffffffff1673ffffffffffffffffffffffffffffffffffffffff163373ffffffffffffffffffffffffffffffffffffffff1614610e06576040517f08c379a0000000000000000000000000000000000000000000000000000000008152600401610dfd90614f61565b60405180910390fd5b60016003811115610e1a57610e19613c39565b5b600260008373ffffffffffffffffffffffffffffffffffffffff1673ffffffffffffffffffffffffffffffffffffffff16815260200190815260200160002060030160009054906101000a900460ff166003811115610e7c57610e7b613c39565b5b14610ebc576040517f08c379a0000000000000000000000000000000000000000000000000000000008152600401610eb390614ff3565b60405180910390fd5b60028060008373ffffffffffffffffffffffffffffffffffffffff1673ffffffffffffffffffffffffffffffffffffffff16815260200190815260200160002060030160006101000a81548160ff02191690836003811115610f2157610f20613c39565b5b02179055508073ffffffffffffffffffffffffffffffffffffffff167fc08f4058f0b8ad2f4d0a56d453ba6498de665affab33a6f78d7d5ff85cbabcc560405160405180910390a250565b6060600060038054905067ffffffffffffffff811115610f8f57610f8e614426565b5b604051908082528060200260200182016040528015610fc857816020015b610fb5613b22565b815260200190600190039081610fad5790505b50905060005b6003805490508110156112c85760006002600060038481548110610ff557610ff4614e49565b5b9060005260206000200160009054906101000a900473ffffffffffffffffffffffffffffffffffffffff1673ffffffffffffffffffffffffffffffffffffffff1673ffffffffffffffffffffffffffffffffffffffff1681526020019081526020016000209050600160038111156110705761106f613c39565b5b8160030160009054906101000a900460ff16600381111561109457611093613c39565b5b036112b457806040518060a00160405290816000820160009054906101000a900473ffffffffffffffffffffffffffffffffffffffff1673ffffffffffffffffffffffffffffffffffffffff1673ffffffffffffffffffffffffffffffffffffffff1681526020016000820160149054906101000a900460ff1660038111156111205761111f613c39565b5b600381111561113257611131613c39565b5b815260200160018201805461114690614894565b80601f016020809104026020016040519081016040528092919081815260200182805461117290614894565b80156111bf5780601f10611194576101008083540402835291602001916111bf565b820191906000526020600020905b8154815290600101906020018083116111a257829003601f168201915b505050505081526020016002820180546111d890614894565b80601f016020809104026020016040519081016040528092919081815260200182805461120490614894565b80156112515780601f1061122657610100808354040283529160200191611251565b820191906000526020600020905b81548152906001019060200180831161123457829003601f168201915b505050505081526020016003820160009054906101000a900460ff16600381111561127f5761127e613c39565b5b600381111561129157611290613c39565b5b815250508383815181106112a8576112a7614e49565b5b60200260200101819052505b5080806112c090614ea7565b915050610fce565b508091505090565b600260038111156112e4576112e3613c39565b5b600260003373ffffffffffffffffffffffffffffffffffffffff1673ffffffffffffffffffffffffffffffffffffffff16815260200190815260200160002060000160149054906101000a900460ff16600381111561134657611345613c39565b5b14611386576040517f08c379a000000000000000000000000000000000000000000000000000000000815260040161137d90615085565b60405180910390fd5b60038081111561139957611398613c39565b5b600260008373ffffffffffffffffffffffffffffffffffffffff1673ffffffffffffffffffffffffffffffffffffffff16815260200190815260200160002060000160149054906101000a900460ff1660038111156113fb576113fa613c39565b5b1461143b576040517f08c379a0000000000000000000000000000000000000000000000000000000008152600401611432906150f1565b60405180910390fd5b6001600381111561144f5761144e613c39565b5b6001600084815260200190815260200160002060020160009054906101000a900460ff16600381111561148557611484613c39565b5b146114c5576040517f08c379a00000000000000000000000000000000000000000000000000000000081526004016114bc90615183565b60405180910390fd5b3373ffffffffffffffffffffffffffffffffffffffff166001600084815260200190815260200160002060070160000160009054906101000a900473ffffffffffffffffffffffffffffffffffffffff1673ffffffffffffffffffffffffffffffffffffffff161461156c576040517f08c379a000000000000000000000000000000000000000000000000000000000815260040161156390615215565b60405180910390fd5b3373ffffffffffffffffffffffffffffffffffffffff168173ffffffffffffffffffffffffffffffffffffffff16036115da576040517f08c379a00000000000000000000000000000000000000000000000000000000081526004016115d190614b7f565b60405180910390fd5b60026001600084815260200190815260200160002060020160006101000a81548160ff0219169083600381111561161457611613613c39565b5b0217905550600260008273ffffffffffffffffffffffffffffffffffffffff1673ffffffffffffffffffffffffffffffffffffffff16815260200190815260200160002060016000848152602001908152602001600020600b016000820160009054906101000a900473ffffffffffffffffffffffffffffffffffffffff168160000160006101000a81548173ffffffffffffffffffffffffffffffffffffffff021916908373ffffffffffffffffffffffffffffffffffffffff1602179055506000820160149054906101000a900460ff168160000160146101000a81548160ff0219169083600381111561170d5761170c613c39565b5b0217905550600182018160010190816117269190614d61565b506002820181600201908161173b9190614d61565b506003820160009054906101000a900460ff168160030160006101000a81548160ff0219169083600381111561177457611773613c39565b5b0217905550905050600760008273ffffffffffffffffffffffffffffffffffffffff1673ffffffffffffffffffffffffffffffffffffffff168152602001908152602001600020829080600181540180825580915050600190039060005260206000200160009091909190915055426001600084815260200190815260200160002060110181905550817ffdc9c1b22f0da57a19aa2ddffa4066c50c121d860bbd3a37586d16b4acd8a70c60405160405180910390a25050565b60005481565b61183c613aa4565b600054821115801561184e5750600082115b61188d576040517f08c379a000000000000000000000000000000000000000000000000000000000815260040161188490615281565b60405180910390fd5b60016000838152602001908152602001600020604051806101600160405290816000820180546118bc90614894565b80601f01602080910402602001604051908101604052809291908181526020018280546118e890614894565b80156119355780601f1061190a57610100808354040283529160200191611935565b820191906000526020600020905b81548152906001019060200180831161191857829003601f168201915b5050505050815260200160018201805461194e90614894565b80601f016020809104026020016040519081016040528092919081815260200182805461197a90614894565b80156119c75780601f1061199c576101008083540402835291602001916119c7565b820191906000526020600020905b8154815290600101906020018083116119aa57829003601f168201915b505050505081526020016002820160009054906101000a900460ff1660038111156119f5576119f4613c39565b5b6003811115611a0757611a06613c39565b5b8152602001600382016040518060a00160405290816000820160009054906101000a900473ffffffffffffffffffffffffffffffffffffffff1673ffffffffffffffffffffffffffffffffffffffff1673ffffffffffffffffffffffffffffffffffffffff1681526020016000820160149054906101000a900460ff166003811115611a9657611a95613c39565b5b6003811115611aa857611aa7613c39565b5b8152602001600182018054611abc90614894565b80601f0160208091040260200160405190810160405280929190818152602001828054611ae890614894565b8015611b355780601f10611b0a57610100808354040283529160200191611b35565b820191906000526020600020905b815481529060010190602001808311611b1857829003601f168201915b50505050508152602001600282018054611b4e90614894565b80601f0160208091040260200160405190810160405280929190818152602001828054611b7a90614894565b8015611bc75780601f10611b9c57610100808354040283529160200191611bc7565b820191906000526020600020905b815481529060010190602001808311611baa57829003601f168201915b505050505081526020016003820160009054906101000a900460ff166003811115611bf557611bf4613c39565b5b6003811115611c0757611c06613c39565b5b815250508152602001600782016040518060a00160405290816000820160009054906101000a900473ffffffffffffffffffffffffffffffffffffffff1673ffffffffffffffffffffffffffffffffffffffff1673ffffffffffffffffffffffffffffffffffffffff1681526020016000820160149054906101000a900460ff166003811115611c9a57611c99613c39565b5b6003811115611cac57611cab613c39565b5b8152602001600182018054611cc090614894565b80601f0160208091040260200160405190810160405280929190818152602001828054611cec90614894565b8015611d395780601f10611d0e57610100808354040283529160200191611d39565b820191906000526020600020905b815481529060010190602001808311611d1c57829003601f168201915b50505050508152602001600282018054611d5290614894565b80601f0160208091040260200160405190810160405280929190818152602001828054611d7e90614894565b8015611dcb5780601f10611da057610100808354040283529160200191611dcb565b820191906000526020600020905b815481529060010190602001808311611dae57829003601f168201915b505050505081526020016003820160009054906101000a900460ff166003811115611df957611df8613c39565b5b6003811115611e0b57611e0a613c39565b5b815250508152602001600b82016040518060a00160405290816000820160009054906101000a900473ffffffffffffffffffffffffffffffffffffffff1673ffffffffffffffffffffffffffffffffffffffff1673ffffffffffffffffffffffffffffffffffffffff1681526020016000820160149054906101000a900460ff166003811115611e9e57611e9d613c39565b5b6003811115611eb057611eaf613c39565b5b8152602001600182018054611ec490614894565b80601f0160208091040260200160405190810160405280929190818152602001828054611ef090614894565b8015611f3d5780601f10611f1257610100808354040283529160200191611f3d565b820191906000526020600020905b815481529060010190602001808311611f2057829003601f168201915b50505050508152602001600282018054611f5690614894565b80601f0160208091040260200160405190810160405280929190818152602001828054611f8290614894565b8015611fcf5780601f10611fa457610100808354040283529160200191611fcf565b820191906000526020600020905b815481529060010190602001808311611fb257829003601f168201915b505050505081526020016003820160009054906101000a900460ff166003811115611ffd57611ffc613c39565b5b600381111561200f5761200e613c39565b5b815250508152602001600f82015481526020016010820154815260200160118201548152602001601282015481526020016013820154815250509050919050565b600460009054906101000a900473ffffffffffffffffffffffffffffffffffffffff1681565b60038081111561208957612088613c39565b5b600260003373ffffffffffffffffffffffffffffffffffffffff1673ffffffffffffffffffffffffffffffffffffffff16815260200190815260200160002060000160149054906101000a900460ff1660038111156120eb576120ea613c39565b5b1461212b576040517f08c379a000000000000000000000000000000000000000000000000000000000815260040161212290615313565b60405180910390fd5b3373ffffffffffffffffffffffffffffffffffffffff1660016000838152602001908152602001600020600b0160000160009054906101000a900473ffffffffffffffffffffffffffffffffffffffff1673ffffffffffffffffffffffffffffffffffffffff16146121d2576040517f08c379a00000000000000000000000000000000000000000000000000000000081526004016121c9906153a5565b60405180910390fd5b600260038111156121e6576121e5613c39565b5b6001600083815260200190815260200160002060020160009054906101000a900460ff16600381111561221c5761221b613c39565b5b1461225c576040517f08c379a000000000000000000000000000000000000000000000000000000000815260040161225390615411565b60405180910390fd5b60036001600083815260200190815260200160002060020160006101000a81548160ff0219169083600381111561229657612295613c39565b5b0217905550426001600083815260200190815260200160002060120181905550807fadf6d10d44a697fd240c9a1ef648f41cd3fdb3d0381c241842dcd46b3dfbd04160405160405180910390a250565b600160038111156122fa576122f9613c39565b5b600260003373ffffffffffffffffffffffffffffffffffffffff1673ffffffffffffffffffffffffffffffffffffffff16815260200190815260200160002060000160149054906101000a900460ff16600381111561235c5761235b613c39565b5b1461239c576040517f08c379a0000000000000000000000000000000000000000000000000000000008152600401612393906154a3565b60405180910390fd5b6000808154809291906123ae90614ea7565b91905055506000604051806101600160405280848152602001838152602001600060038111156123e1576123e0613c39565b5b8152602001600260003373ffffffffffffffffffffffffffffffffffffffff1673ffffffffffffffffffffffffffffffffffffffff1681526020019081526020016000206040518060a00160405290816000820160009054906101000a900473ffffffffffffffffffffffffffffffffffffffff1673ffffffffffffffffffffffffffffffffffffffff1673ffffffffffffffffffffffffffffffffffffffff1681526020016000820160149054906101000a900460ff1660038111156124ab576124aa613c39565b5b60038111156124bd576124bc613c39565b5b81526020016001820180546124d190614894565b80601f01602080910402602001604051908101604052809291908181526020018280546124fd90614894565b801561254a5780601f1061251f5761010080835404028352916020019161254a565b820191906000526020600020905b81548152906001019060200180831161252d57829003601f168201915b5050505050815260200160028201805461256390614894565b80601f016020809104026020016040519081016040528092919081815260200182805461258f90614894565b80156125dc5780601f106125b1576101008083540402835291602001916125dc565b820191906000526020600020905b8154815290600101906020018083116125bf57829003601f168201915b505050505081526020016003820160009054906101000a900460ff16600381111561260a57612609613c39565b5b600381111561261c5761261b613c39565b5b8152505081526020016040518060a00160405280600073ffffffffffffffffffffffffffffffffffffffff1681526020016002600381111561266157612660613c39565b5b8152602001604051806020016040528060008152508152602001604051806020016040528060008152508152602001600060038111156126a4576126a3613c39565b5b81525081526020016040518060a00160405280600073ffffffffffffffffffffffffffffffffffffffff1681526020016003808111156126e7576126e6613c39565b5b81526020016040518060200160405280600081525081526020016040518060200160405280600081525081526020016000600381111561272a57612729613c39565b5b81525081526020014281526020016000815260200160008152602001600081526020016000548152509050806001600080548152602001908152602001600020600082015181600001908161277f91906154c3565b50602082015181600101908161279591906154c3565b5060408201518160020160006101000a81548160ff021916908360038111156127c1576127c0613c39565b5b021790555060608201518160030160008201518160000160006101000a81548173ffffffffffffffffffffffffffffffffffffffff021916908373ffffffffffffffffffffffffffffffffffffffff16021790555060208201518160000160146101000a81548160ff0219169083600381111561284157612840613c39565b5b0217905550604082015181600101908161285b91906154c3565b50606082015181600201908161287191906154c3565b5060808201518160030160006101000a81548160ff0219169083600381111561289d5761289c613c39565b5b0217905550505060808201518160070160008201518160000160006101000a81548173ffffffffffffffffffffffffffffffffffffffff021916908373ffffffffffffffffffffffffffffffffffffffff16021790555060208201518160000160146101000a81548160ff0219169083600381111561291f5761291e613c39565b5b0217905550604082015181600101908161293991906154c3565b50606082015181600201908161294f91906154c3565b5060808201518160030160006101000a81548160ff0219169083600381111561297b5761297a613c39565b5b0217905550505060a082015181600b0160008201518160000160006101000a81548173ffffffffffffffffffffffffffffffffffffffff021916908373ffffffffffffffffffffffffffffffffffffffff16021790555060208201518160000160146101000a81548160ff021916908360038111156129fd576129fc613c39565b5b02179055506040820151816001019081612a1791906154c3565b506060820151816002019081612a2d91906154c3565b5060808201518160030160006101000a81548160ff02191690836003811115612a5957612a58613c39565b5b0217905550505060c082015181600f015560e08201518160100155610100820151816011015561012082015181601201556101408201518160130155905050600560003373ffffffffffffffffffffffffffffffffffffffff1673ffffffffffffffffffffffffffffffffffffffff16815260200190815260200160002060005490806001815401808255809150506001900390600052602060002001600090919091909150556000547f10fa3189f08c22b87bab9f8f7d565ca47f0ea54cdd124f46eb1ac8a47b21e82f60405160405180910390a2505050565b60038181548110612b4457600080fd5b906000526020600020016000915054906101000a900473ffffffffffffffffffffffffffffffffffffffff1681565b600460009054906101000a900473ffffffffffffffffffffffffffffffffffffffff1673ffffffffffffffffffffffffffffffffffffffff163373ffffffffffffffffffffffffffffffffffffffff1603612c03576040517f08c379a0000000000000000000000000000000000000000000000000000000008152600401612bfa906155e1565b60405180910390fd5b60006003811115612c1757612c16613c39565b5b600260003373ffffffffffffffffffffffffffffffffffffffff1673ffffffffffffffffffffffffffffffffffffffff16815260200190815260200160002060000160149054906101000a900460ff166003811115612c7957612c78613c39565b5b14612cb9576040517f08c379a0000000000000000000000000000000000000000000000000000000008152600401612cb09061564d565b60405180910390fd5b6040518060a001604052803373ffffffffffffffffffffffffffffffffffffffff168152602001846003811115612cf357612cf2613c39565b5b815260200183815260200182815260200160006003811115612d1857612d17613c39565b5b815250600260003373ffffffffffffffffffffffffffffffffffffffff1673ffffffffffffffffffffffffffffffffffffffff16815260200190815260200160002060008201518160000160006101000a81548173ffffffffffffffffffffffffffffffffffffffff021916908373ffffffffffffffffffffffffffffffffffffffff16021790555060208201518160000160146101000a81548160ff02191690836003811115612dcc57612dcb613c39565b5b02179055506040820151816001019081612de691906154c3565b506060820151816002019081612dfc91906154c3565b5060808201518160030160006101000a81548160ff02191690836003811115612e2857612e27613c39565b5b02179055509050506003339080600181540180825580915050600190039060005260206000200160009091909190916101000a81548173ffffffffffffffffffffffffffffffffffffffff021916908373ffffffffffffffffffffffffffffffffffffffff160217905550505050565b60606000600660008473ffffffffffffffffffffffffffffffffffffffff1673ffffffffffffffffffffffffffffffffffffffff168152602001908152602001600020805480602002602001604051908101604052809291908181526020018280548015612f2557602002820191906000526020600020905b815481526020019060010190808311612f11575b505050505090506000815167ffffffffffffffff811115612f4957612f48614426565b5b604051908082528060200260200182016040528015612f8257816020015b612f6f613aa4565b815260200190600190039081612f675790505b50905060005b8251811015612fe557612fb4838281518110612fa757612fa6614e49565b5b6020026020010151611834565b828281518110612fc757612fc6614e49565b5b60200260200101819052508080612fdd90614ea7565b915050612f88565b508092505050919050565b600160205280600052604060002060009150905080600001805461301390614894565b80601f016020809104026020016040519081016040528092919081815260200182805461303f90614894565b801561308c5780601f106130615761010080835404028352916020019161308c565b820191906000526020600020905b81548152906001019060200180831161306f57829003601f168201915b5050505050908060010180546130a190614894565b80601f01602080910402602001604051908101604052809291908181526020018280546130cd90614894565b801561311a5780601f106130ef5761010080835404028352916020019161311a565b820191906000526020600020905b8154815290600101906020018083116130fd57829003601f168201915b5050505050908060020160009054906101000a900460ff1690806003016040518060a00160405290816000820160009054906101000a900473ffffffffffffffffffffffffffffffffffffffff1673ffffffffffffffffffffffffffffffffffffffff1673ffffffffffffffffffffffffffffffffffffffff1681526020016000820160149054906101000a900460ff1660038111156131bd576131bc613c39565b5b60038111156131cf576131ce613c39565b5b81526020016001820180546131e390614894565b80601f016020809104026020016040519081016040528092919081815260200182805461320f90614894565b801561325c5780601f106132315761010080835404028352916020019161325c565b820191906000526020600020905b81548152906001019060200180831161323f57829003601f168201915b5050505050815260200160028201805461327590614894565b80601f01602080910402602001604051908101604052809291908181526020018280546132a190614894565b80156132ee5780601f106132c3576101008083540402835291602001916132ee565b820191906000526020600020905b8154815290600101906020018083116132d157829003601f168201915b505050505081526020016003820160009054906101000a900460ff16600381111561331c5761331b613c39565b5b600381111561332e5761332d613c39565b5b8152505090806007016040518060a00160405290816000820160009054906101000a900473ffffffffffffffffffffffffffffffffffffffff1673ffffffffffffffffffffffffffffffffffffffff1673ffffffffffffffffffffffffffffffffffffffff1681526020016000820160149054906101000a900460ff1660038111156133bd576133bc613c39565b5b60038111156133cf576133ce613c39565b5b81526020016001820180546133e390614894565b80601f016020809104026020016040519081016040528092919081815260200182805461340f90614894565b801561345c5780601f106134315761010080835404028352916020019161345c565b820191906000526020600020905b81548152906001019060200180831161343f57829003601f168201915b5050505050815260200160028201805461347590614894565b80601f01602080910402602001604051908101604052809291908181526020018280546134a190614894565b80156134ee5780601f106134c3576101008083540402835291602001916134ee565b820191906000526020600020905b8154815290600101906020018083116134d157829003601f168201915b505050505081526020016003820160009054906101000a900460ff16600381111561351c5761351b613c39565b5b600381111561352e5761352d613c39565b5b815250509080600b016040518060a00160405290816000820160009054906101000a900473ffffffffffffffffffffffffffffffffffffffff1673ffffffffffffffffffffffffffffffffffffffff1673ffffffffffffffffffffffffffffffffffffffff1681526020016000820160149054906101000a900460ff1660038111156135bd576135bc613c39565b5b60038111156135cf576135ce613c39565b5b81526020016001820180546135e390614894565b80601f016020809104026020016040519081016040528092919081815260200182805461360f90614894565b801561365c5780601f106136315761010080835404028352916020019161365c565b820191906000526020600020905b81548152906001019060200180831161363f57829003601f168201915b5050505050815260200160028201805461367590614894565b80601f01602080910402602001604051908101604052809291908181526020018280546136a190614894565b80156136ee5780601f106136c3576101008083540402835291602001916136ee565b820191906000526020600020905b8154815290600101906020018083116136d157829003601f168201915b505050505081526020016003820160009054906101000a900460ff16600381111561371c5761371b613c39565b5b600381111561372e5761372d613c39565b5b815250509080600f015490806010015490806011015490806012015490806013015490508b565b600460009054906101000a900473ffffffffffffffffffffffffffffffffffffffff1673ffffffffffffffffffffffffffffffffffffffff163373ffffffffffffffffffffffffffffffffffffffff16146137e5576040517f08c379a00000000000000000000000000000000000000000000000000000000081526004016137dc90614f61565b60405180910390fd5b600160038111156137f9576137f8613c39565b5b600260008373ffffffffffffffffffffffffffffffffffffffff1673ffffffffffffffffffffffffffffffffffffffff16815260200190815260200160002060030160009054906101000a900460ff16600381111561385b5761385a613c39565b5b1461389b576040517f08c379a000000000000000000000000000000000000000000000000000000000815260040161389290614ff3565b60405180910390fd5b6003600260008373ffffffffffffffffffffffffffffffffffffffff1673ffffffffffffffffffffffffffffffffffffffff16815260200190815260200160002060030160006101000a81548160ff0219169083600381111561390157613900613c39565b5b02179055508073ffffffffffffffffffffffffffffffffffffffff167fb6e1998480cbed8ef9ba38ba6de031342779ea915a308f8c4294fb114ee941f760405160405180910390a250565b60606000600760008473ffffffffffffffffffffffffffffffffffffffff1673ffffffffffffffffffffffffffffffffffffffff1681526020019081526020016000208054806020026020016040519081016040528092919081815260200182805480156139d957602002820191906000526020600020905b8154815260200190600101908083116139c5575b505050505090506000815167ffffffffffffffff8111156139fd576139fc614426565b5b604051908082528060200260200182016040528015613a3657816020015b613a23613aa4565b815260200190600190039081613a1b5790505b50905060005b8251811015613a9957613a68838281518110613a5b57613a5a614e49565b5b6020026020010151611834565b828281518110613a7b57613a7a614e49565b5b60200260200101819052508080613a9190614ea7565b915050613a3c565b508092505050919050565b604051806101600160405280606081526020016060815260200160006003811115613ad257613ad1613c39565b5b8152602001613adf613b22565b8152602001613aec613b22565b8152602001613af9613b22565b815260200160008152602001600081526020016000815260200160008152602001600081525090565b6040518060a00160405280600073ffffffffffffffffffffffffffffffffffffffff16815260200160006003811115613b5e57613b5d613c39565b5b8152602001606081526020016060815260200160006003811115613b8557613b84613c39565b5b81525090565b6000604051905090565b600080fd5b600080fd5b600073ffffffffffffffffffffffffffffffffffffffff82169050919050565b6000613bca82613b9f565b9050919050565b613bda81613bbf565b8114613be557600080fd5b50565b600081359050613bf781613bd1565b92915050565b600060208284031215613c1357613c12613b95565b5b6000613c2184828501613be8565b91505092915050565b613c3381613bbf565b82525050565b7f4e487b7100000000000000000000000000000000000000000000000000000000600052602160045260246000fd5b60048110613c7957613c78613c39565b5b50565b6000819050613c8a82613c68565b919050565b6000613c9a82613c7c565b9050919050565b613caa81613c8f565b82525050565b600081519050919050565b600082825260208201905092915050565b60005b83811015613cea578082015181840152602081019050613ccf565b60008484015250505050565b6000601f19601f8301169050919050565b6000613d1282613cb0565b613d1c8185613cbb565b9350613d2c818560208601613ccc565b613d3581613cf6565b840191505092915050565b60048110613d5157613d50613c39565b5b50565b6000819050613d6282613d40565b919050565b6000613d7282613d54565b9050919050565b613d8281613d67565b82525050565b600060a082019050613d9d6000830188613c2a565b613daa6020830187613ca1565b8181036040830152613dbc8186613d07565b90508181036060830152613dd08185613d07565b9050613ddf6080830184613d79565b9695505050505050565b6000819050919050565b613dfc81613de9565b8114613e0757600080fd5b50565b600081359050613e1981613df3565b92915050565b60008060408385031215613e3657613e35613b95565b5b6000613e4485828601613e0a565b9250506020613e5585828601613be8565b9150509250929050565b600081519050919050565b600082825260208201905092915050565b6000819050602082019050919050565b600082825260208201905092915050565b6000613ea782613cb0565b613eb18185613e8b565b9350613ec1818560208601613ccc565b613eca81613cf6565b840191505092915050565b60048110613ee657613ee5613c39565b5b50565b6000819050613ef782613ed5565b919050565b6000613f0782613ee9565b9050919050565b613f1781613efc565b82525050565b613f2681613bbf565b82525050565b613f3581613c8f565b82525050565b613f4481613d67565b82525050565b600060a083016000830151613f626000860182613f1d565b506020830151613f756020860182613f2c565b5060408301518482036040860152613f8d8282613e9c565b91505060608301518482036060860152613fa78282613e9c565b9150506080830151613fbc6080860182613f3b565b508091505092915050565b613fd081613de9565b82525050565b6000610160830160008301518482036000860152613ff48282613e9c565b9150506020830151848203602086015261400e8282613e9c565b91505060408301516140236040860182613f0e565b506060830151848203606086015261403b8282613f4a565b915050608083015184820360808601526140558282613f4a565b91505060a083015184820360a086015261406f8282613f4a565b91505060c083015161408460c0860182613fc7565b5060e083015161409760e0860182613fc7565b506101008301516140ac610100860182613fc7565b506101208301516140c1610120860182613fc7565b506101408301516140d6610140860182613fc7565b508091505092915050565b60006140ed8383613fd6565b905092915050565b6000602082019050919050565b600061410d82613e5f565b6141178185613e6a565b93508360208202850161412985613e7b565b8060005b85811015614165578484038952815161414685826140e1565b9450614151836140f5565b925060208a0199505060018101905061412d565b50829750879550505050505092915050565b600060208201905081810360008301526141918184614102565b905092915050565b600081519050919050565b600082825260208201905092915050565b6000819050602082019050919050565b60006141d18383613f4a565b905092915050565b6000602082019050919050565b60006141f182614199565b6141fb81856141a4565b93508360208202850161420d856141b5565b8060005b85811015614249578484038952815161422a85826141c5565b9450614235836141d9565b925060208a01995050600181019050614211565b50829750879550505050505092915050565b6000602082019050818103600083015261427581846141e6565b905092915050565b61428681613de9565b82525050565b60006020820190506142a1600083018461427d565b92915050565b6000602082840312156142bd576142bc613b95565b5b60006142cb84828501613e0a565b91505092915050565b60006101608301600083015184820360008601526142f28282613e9c565b9150506020830151848203602086015261430c8282613e9c565b91505060408301516143216040860182613f0e565b50606083015184820360608601526143398282613f4a565b915050608083015184820360808601526143538282613f4a565b91505060a083015184820360a086015261436d8282613f4a565b91505060c083015161438260c0860182613fc7565b5060e083015161439560e0860182613fc7565b506101008301516143aa610100860182613fc7565b506101208301516143bf610120860182613fc7565b506101408301516143d4610140860182613fc7565b508091505092915050565b600060208201905081810360008301526143f981846142d4565b905092915050565b60006020820190506144166000830184613c2a565b92915050565b600080fd5b600080fd5b7f4e487b7100000000000000000000000000000000000000000000000000000000600052604160045260246000fd5b61445e82613cf6565b810181811067ffffffffffffffff8211171561447d5761447c614426565b5b80604052505050565b6000614490613b8b565b905061449c8282614455565b919050565b600067ffffffffffffffff8211156144bc576144bb614426565b5b6144c582613cf6565b9050602081019050919050565b82818337600083830152505050565b60006144f46144ef846144a1565b614486565b9050828152602081018484840111156145105761450f614421565b5b61451b8482856144d2565b509392505050565b600082601f8301126145385761453761441c565b5b81356145488482602086016144e1565b91505092915050565b6000806040838503121561456857614567613b95565b5b600083013567ffffffffffffffff81111561458657614585613b9a565b5b61459285828601614523565b925050602083013567ffffffffffffffff8111156145b3576145b2613b9a565b5b6145bf85828601614523565b9150509250929050565b600481106145d657600080fd5b50565b6000813590506145e8816145c9565b92915050565b60008060006060848603121561460757614606613b95565b5b6000614615868287016145d9565b935050602084013567ffffffffffffffff81111561463657614635613b9a565b5b61464286828701614523565b925050604084013567ffffffffffffffff81111561466357614662613b9a565b5b61466f86828701614523565b9150509250925092565b61468281613efc565b82525050565b600060a0830160008301516146a06000860182613f1d565b5060208301516146b36020860182613f2c565b50604083015184820360408601526146cb8282613e9c565b915050606083015184820360608601526146e58282613e9c565b91505060808301516146fa6080860182613f3b565b508091505092915050565b6000610160820190508181036000830152614720818e613d07565b90508181036020830152614734818d613d07565b9050614743604083018c614679565b8181036060830152614755818b614688565b90508181036080830152614769818a614688565b905081810360a083015261477d8189614688565b905061478c60c083018861427d565b61479960e083018761427d565b6147a761010083018661427d565b6147b561012083018561427d565b6147c361014083018461427d565b9c9b505050505050505050505050565b7f566572696669636174696f6e20616c726561647920726571756573746564206f60008201527f7220617070726f7665642e000000000000000000000000000000000000000000602082015250565b600061482f602b83613cbb565b915061483a826147d3565b604082019050919050565b6000602082019050818103600083015261485e81614822565b9050919050565b7f4e487b7100000000000000000000000000000000000000000000000000000000600052602260045260246000fd5b600060028204905060018216806148ac57607f821691505b6020821081036148bf576148be614865565b5b50919050565b7f4f6e6c79206d616e756661637475726572732063616e20706572666f726d207460008201527f68697320616374696f6e2e000000000000000000000000000000000000000000602082015250565b6000614921602b83613cbb565b915061492c826148c5565b604082019050919050565b6000602082019050818103600083015261495081614914565b9050919050565b7f496e76616c6964206469737472696275746f7220616464726573732e00000000600082015250565b600061498d601c83613cbb565b915061499882614957565b602082019050919050565b600060208201905081810360008301526149bc81614980565b9050919050565b7f50726f647563742063616e6e6f74206265207368697070656420746f2064697360008201527f7472696275746f722e0000000000000000000000000000000000000000000000602082015250565b6000614a1f602983613cbb565b9150614a2a826149c3565b604082019050919050565b60006020820190508181036000830152614a4e81614a12565b9050919050565b7f4f6e6c7920746865206d616e756661637475726572207468617420637265617460008201527f6564207468652070726f647563742063616e207368697020746f20746865206460208201527f69737472696275746f722e000000000000000000000000000000000000000000604082015250565b6000614ad7604b83613cbb565b9150614ae282614a55565b606082019050919050565b60006020820190508181036000830152614b0681614aca565b9050919050565b7f596f752063616e6e6f7420736869702070726f6475637420746f20796f75727360008201527f656c660000000000000000000000000000000000000000000000000000000000602082015250565b6000614b69602383613cbb565b9150614b7482614b0d565b604082019050919050565b60006020820190508181036000830152614b9881614b5c565b9050919050565b600081549050614bae81614894565b9050919050565b60008190508160005260206000209050919050565b60006020601f8301049050919050565b600082821b905092915050565b600060088302614c177fffffffffffffffffffffffffffffffffffffffffffffffffffffffffffffffff82614bda565b614c218683614bda565b95508019841693508086168417925050509392505050565b6000819050919050565b6000614c5e614c59614c5484613de9565b614c39565b613de9565b9050919050565b6000819050919050565b614c7883614c43565b614c8c614c8482614c65565b848454614be7565b825550505050565b600090565b614ca1614c94565b614cac818484614c6f565b505050565b5b81811015614cd057614cc5600082614c99565b600181019050614cb2565b5050565b601f821115614d1557614ce681614bb5565b614cef84614bca565b81016020851015614cfe578190505b614d12614d0a85614bca565b830182614cb1565b50505b505050565b600082821c905092915050565b6000614d3860001984600802614d1a565b1980831691505092915050565b6000614d518383614d27565b9150826002028217905092915050565b818103614d6f575050614e47565b614d7882614b9f565b67ffffffffffffffff811115614d9157614d90614426565b5b614d9b8254614894565b614da6828285614cd4565b6000601f831160018114614dd55760008415614dc3578287015490505b614dcd8582614d45565b865550614e40565b601f198416614de387614bb5565b9650614dee86614bb5565b60005b82811015614e1657848901548255600182019150600185019450602081019050614df1565b86831015614e335784890154614e2f601f891682614d27565b8355505b6001600288020188555050505b5050505050505b565b7f4e487b7100000000000000000000000000000000000000000000000000000000600052603260045260246000fd5b7f4e487b7100000000000000000000000000000000000000000000000000000000600052601160045260246000fd5b6000614eb282613de9565b91507fffffffffffffffffffffffffffffffffffffffffffffffffffffffffffffffff8203614ee457614ee3614e78565b5b600182019050919050565b7f4f6e6c792074686520636f6e7472616374206f776e65722063616e207065726660008201527f6f726d207468697320616374696f6e2e00000000000000000000000000000000602082015250565b6000614f4b603083613cbb565b9150614f5682614eef565b604082019050919050565b60006020820190508181036000830152614f7a81614f3e565b9050919050565b7f566572696669636174696f6e206e6f7420726571756573746564206f7220616c60008201527f72656164792070726f6365737365642e00000000000000000000000000000000602082015250565b6000614fdd603083613cbb565b9150614fe882614f81565b604082019050919050565b6000602082019050818103600083015261500c81614fd0565b9050919050565b7f4f6e6c79206469737472696275746f72732063616e20706572666f726d20746860008201527f697320616374696f6e2e00000000000000000000000000000000000000000000602082015250565b600061506f602a83613cbb565b915061507a82615013565b604082019050919050565b6000602082019050818103600083015261509e81615062565b9050919050565b7f496e76616c69642072657461696c657220616464726573732e00000000000000600082015250565b60006150db601983613cbb565b91506150e6826150a5565b602082019050919050565b6000602082019050818103600083015261510a816150ce565b9050919050565b7f50726f647563742063616e6e6f74206265207368697070656420746f2072657460008201527f61696c65722e0000000000000000000000000000000000000000000000000000602082015250565b600061516d602683613cbb565b915061517882615111565b604082019050919050565b6000602082019050818103600083015261519c81615160565b9050919050565b7f4f6e6c79207468652061737369676e6564206469737472696275746f7220636160008201527f6e207368697020746f207468652072657461696c65722e000000000000000000602082015250565b60006151ff603783613cbb565b915061520a826151a3565b604082019050919050565b6000602082019050818103600083015261522e816151f2565b9050919050565b7f496e76616c6964206974656d2049440000000000000000000000000000000000600082015250565b600061526b600f83613cbb565b915061527682615235565b602082019050919050565b6000602082019050818103600083015261529a8161525e565b9050919050565b7f4f6e6c792072657461696c6572732063616e20706572666f726d20746869732060008201527f616374696f6e2e00000000000000000000000000000000000000000000000000602082015250565b60006152fd602783613cbb565b9150615308826152a1565b604082019050919050565b6000602082019050818103600083015261532c816152f0565b9050919050565b7f4f6e6c79207468652061737369676e65642072657461696c65722063616e207360008201527f656c6c20746865206974656d2e00000000000000000000000000000000000000602082015250565b600061538f602d83613cbb565b915061539a82615333565b604082019050919050565b600060208201905081810360008301526153be81615382565b9050919050565b7f4661696c656420746f2073656c6c2070726f6475637400000000000000000000600082015250565b60006153fb601683613cbb565b9150615406826153c5565b602082019050919050565b6000602082019050818103600083015261542a816153ee565b9050919050565b7f4f6e6c79206d616e756661637475726572732063616e2063726561746520697460008201527f656d732e00000000000000000000000000000000000000000000000000000000602082015250565b600061548d602483613cbb565b915061549882615431565b604082019050919050565b600060208201905081810360008301526154bc81615480565b9050919050565b6154cc82613cb0565b67ffffffffffffffff8111156154e5576154e4614426565b5b6154ef8254614894565b6154fa828285614cd4565b600060209050601f83116001811461552d576000841561551b578287015190505b6155258582614d45565b86555061558d565b601f19841661553b86614bb5565b60005b828110156155635784890151825560018201915060208501945060208101905061553e565b86831015615580578489015161557c601f891682614d27565b8355505b6001600288020188555050505b505050505050565b7f4f776e65722063616e6e6f7420726567697374657220616761696e0000000000600082015250565b60006155cb601b83613cbb565b91506155d682615595565b602082019050919050565b600060208201905081810360008301526155fa816155be565b9050919050565b7f5573657220697320616c726561647920726567697374657265642e0000000000600082015250565b6000615637601b83613cbb565b915061564282615601565b602082019050919050565b600060208201905081810360008301526156668161562a565b905091905056fea2646970667358221220df2e0ea5d9f3520ac3b0e0ff30b30b40bda41b7831b6e70aeb3c9c4e74aa6e3264736f6c63430008120033",
  "linkReferences": {},
  "deployedLinkReferences": {}
}